{
  "contractName": "OrderMarketplace",
  "abi": [
    {
      "inputs": [],
      "stateMutability": "nonpayable",
      "type": "constructor"
    },
    {
      "inputs": [],
      "name": "OnlyOwner",
      "type": "error"
    },
    {
      "inputs": [],
      "name": "OrderInvalidState",
      "type": "error"
    },
    {
      "stateMutability": "payable",
      "type": "receive",
      "payable": true
    },
    {
      "inputs": [
        {
          "components": [
            {
              "internalType": "string",
              "name": "id",
              "type": "string"
            },
            {
              "internalType": "uint256",
              "name": "amount",
              "type": "uint256"
            }
          ],
          "internalType": "struct OrderMarketplace.OrderItem[]",
          "name": "items",
          "type": "tuple[]"
        }
      ],
      "name": "createOrder",
      "outputs": [],
      "stateMutability": "payable",
      "type": "function",
      "payable": true
    },
    {
      "inputs": [
        {
          "internalType": "uint256",
          "name": "index",
          "type": "uint256"
        }
      ],
      "name": "confirmOrder",
      "outputs": [],
      "stateMutability": "nonpayable",
      "type": "function"
    },
    {
      "inputs": [
        {
          "internalType": "uint256",
          "name": "index",
          "type": "uint256"
        }
      ],
      "name": "cancelOrder",
      "outputs": [],
      "stateMutability": "nonpayable",
      "type": "function"
    },
    {
      "inputs": [
        {
          "internalType": "uint256",
          "name": "amount",
          "type": "uint256"
        }
      ],
      "name": "withdraw",
      "outputs": [],
      "stateMutability": "nonpayable",
      "type": "function"
    },
    {
      "inputs": [],
      "name": "selfDestruct",
      "outputs": [],
      "stateMutability": "nonpayable",
      "type": "function"
    },
    {
      "inputs": [
        {
          "internalType": "string",
          "name": "id",
          "type": "string"
        }
      ],
      "name": "traceOrdersByProductId",
      "outputs": [
        {
          "components": [
            {
              "internalType": "uint256",
              "name": "id",
              "type": "uint256"
            },
            {
              "components": [
                {
                  "internalType": "string",
                  "name": "id",
                  "type": "string"
                },
                {
                  "internalType": "uint256",
                  "name": "amount",
                  "type": "uint256"
                }
              ],
              "internalType": "struct OrderMarketplace.OrderItem[]",
              "name": "items",
              "type": "tuple[]"
            },
            {
              "internalType": "address",
              "name": "customer",
              "type": "address"
            },
            {
              "internalType": "enum OrderMarketplace.OrderState",
              "name": "state",
              "type": "uint8"
            }
          ],
          "internalType": "struct OrderMarketplace.Order[]",
          "name": "",
          "type": "tuple[]"
        }
      ],
      "stateMutability": "view",
      "type": "function",
      "constant": true
    },
    {
      "inputs": [
        {
          "internalType": "uint256",
          "name": "id",
          "type": "uint256"
        }
      ],
      "name": "getOrderById",
      "outputs": [
        {
          "components": [
            {
              "internalType": "uint256",
              "name": "id",
              "type": "uint256"
            },
            {
              "components": [
                {
                  "internalType": "string",
                  "name": "id",
                  "type": "string"
                },
                {
                  "internalType": "uint256",
                  "name": "amount",
                  "type": "uint256"
                }
              ],
              "internalType": "struct OrderMarketplace.OrderItem[]",
              "name": "items",
              "type": "tuple[]"
            },
            {
              "internalType": "address",
              "name": "customer",
              "type": "address"
            },
            {
              "internalType": "enum OrderMarketplace.OrderState",
              "name": "state",
              "type": "uint8"
            }
          ],
          "internalType": "struct OrderMarketplace.Order",
          "name": "",
          "type": "tuple"
        }
      ],
      "stateMutability": "view",
      "type": "function",
      "constant": true
    },
    {
      "inputs": [],
      "name": "getOrderCount",
      "outputs": [
        {
          "internalType": "uint256",
          "name": "",
          "type": "uint256"
        }
      ],
      "stateMutability": "view",
      "type": "function",
      "constant": true
    },
    {
      "inputs": [],
      "name": "getContractOwner",
      "outputs": [
        {
          "internalType": "address",
          "name": "",
          "type": "address"
        }
      ],
      "stateMutability": "view",
      "type": "function",
      "constant": true
    }
  ],
  "bytecode": "0x608060405234801561001057600080fd5b506100203361002560201b60201c565b610068565b806000806101000a81548173ffffffffffffffffffffffffffffffffffffffff021916908373ffffffffffffffffffffffffffffffffffffffff16021790555050565b611cfa806100776000396000f3fe60806040526004361061008a5760003560e01c80638ac7d79c116100595780638ac7d79c146101505780638d0a5fbb146101795780639cb8a26a146101a4578063bfc594ca146101bb578063efc91c8d146101d757610091565b80632e1a7d4d1461009657806342b50a7a146100bf578063442890d5146100fc578063514fcac71461012757610091565b3661009157005b600080fd5b3480156100a257600080fd5b506100bd60048036038101906100b89190610f00565b610214565b005b3480156100cb57600080fd5b506100e660048036038101906100e19190610f00565b610351565b6040516100f391906111ef565b60405180910390f35b34801561010857600080fd5b50610111610558565b60405161011e9190611220565b60405180910390f35b34801561013357600080fd5b5061014e60048036038101906101499190610f00565b610581565b005b34801561015c57600080fd5b5061017760048036038101906101729190610f00565b6106fa565b005b34801561018557600080fd5b5061018e610873565b60405161019b919061124a565b60405180910390f35b3480156101b057600080fd5b506101b961087d565b005b6101d560048036038101906101d091906112ca565b610922565b005b3480156101e357600080fd5b506101fe60048036038101906101f99190611447565b610a85565b60405161020b91906115b5565b60405180910390f35b61021c610558565b73ffffffffffffffffffffffffffffffffffffffff163373ffffffffffffffffffffffffffffffffffffffff1614610280576040517f5fc483c500000000000000000000000000000000000000000000000000000000815260040160405180910390fd5b60008060009054906101000a900473ffffffffffffffffffffffffffffffffffffffff1673ffffffffffffffffffffffffffffffffffffffff16826040516102c790611608565b60006040518083038185875af1925050503d8060008114610304576040519150601f19603f3d011682016040523d82523d6000602084013e610309565b606091505b505090508061034d576040517f08c379a00000000000000000000000000000000000000000000000000000000081526004016103449061167a565b60405180910390fd5b5050565b610359610e66565b600254821061039d576040517f08c379a0000000000000000000000000000000000000000000000000000000008152600401610394906116e6565b60405180910390fd5b600160008381526020019081526020016000206040518060800160405290816000820154815260200160018201805480602002602001604051908101604052809291908181526020016000905b828210156104b8578382906000526020600020906002020160405180604001604052908160008201805461041d90611735565b80601f016020809104026020016040519081016040528092919081815260200182805461044990611735565b80156104965780601f1061046b57610100808354040283529160200191610496565b820191906000526020600020905b81548152906001019060200180831161047957829003601f168201915b50505050508152602001600182015481525050815260200190600101906103ea565b5050505081526020016002820160009054906101000a900473ffffffffffffffffffffffffffffffffffffffff1673ffffffffffffffffffffffffffffffffffffffff1673ffffffffffffffffffffffffffffffffffffffff1681526020016002820160149054906101000a900460ff16600281111561053b5761053a611115565b5b600281111561054d5761054c611115565b5b815250509050919050565b60008060009054906101000a900473ffffffffffffffffffffffffffffffffffffffff16905090565b610589610558565b73ffffffffffffffffffffffffffffffffffffffff163373ffffffffffffffffffffffffffffffffffffffff16146105ed576040517f5fc483c500000000000000000000000000000000000000000000000000000000815260040160405180910390fd5b6002548110610631576040517f08c379a0000000000000000000000000000000000000000000000000000000008152600401610628906116e6565b60405180910390fd5b6000600281111561064557610644611115565b5b6001600083815260200190815260200160002060020160149054906101000a900460ff16600281111561067b5761067a611115565b5b146106b2576040517f7f2bab6100000000000000000000000000000000000000000000000000000000815260040160405180910390fd5b600060016000838152602001908152602001600020905060028160020160146101000a81548160ff021916908360028111156106f1576106f0611115565b5b02179055505050565b610702610558565b73ffffffffffffffffffffffffffffffffffffffff163373ffffffffffffffffffffffffffffffffffffffff1614610766576040517f5fc483c500000000000000000000000000000000000000000000000000000000815260040160405180910390fd5b60025481106107aa576040517f08c379a00000000000000000000000000000000000000000000000000000000081526004016107a1906116e6565b60405180910390fd5b600060028111156107be576107bd611115565b5b6001600083815260200190815260200160002060020160149054906101000a900460ff1660028111156107f4576107f3611115565b5b1461082b576040517f7f2bab6100000000000000000000000000000000000000000000000000000000815260040160405180910390fd5b600060016000838152602001908152602001600020905060018160020160146101000a81548160ff0219169083600281111561086a57610869611115565b5b02179055505050565b6000600254905090565b610885610558565b73ffffffffffffffffffffffffffffffffffffffff163373ffffffffffffffffffffffffffffffffffffffff16146108e9576040517f5fc483c500000000000000000000000000000000000000000000000000000000815260040160405180910390fd5b60008054906101000a900473ffffffffffffffffffffffffffffffffffffffff1673ffffffffffffffffffffffffffffffffffffffff16ff5b60006002600081548092919061093790611795565b919050559050806001600083815260200190815260200160002060000181905550336001600083815260200190815260200160002060020160006101000a81548173ffffffffffffffffffffffffffffffffffffffff021916908373ffffffffffffffffffffffffffffffffffffffff16021790555060005b83839050811015610a4057600160008381526020019081526020016000206001018484838181106109e4576109e36117dd565b5b90506020028101906109f6919061181b565b90806001815401808255809150506001900390600052602060002090600202016000909190919091508181610a2b9190611c0b565b50508080610a3890611795565b9150506109b0565b5060006001600083815260200190815260200160002060020160146101000a81548160ff02191690836002811115610a7b57610a7a611115565b5b0217905550505050565b60606000610a9283610d8c565b67ffffffffffffffff811115610aab57610aaa61131c565b5b604051908082528060200260200182016040528015610ae457816020015b610ad1610e66565b815260200190600190039081610ac95790505b5090506000805b600254811015610d815760005b6001600083815260200190815260200160002060010180549050811015610d6d5760008680519060200120600160008581526020019081526020016000206001018381548110610b4b57610b4a6117dd565b5b9060005260206000209060020201600001604051610b699190611cad565b60405180910390201490508015610d5957600160008481526020019081526020016000206040518060800160405290816000820154815260200160018201805480602002602001604051908101604052809291908181526020016000905b82821015610c955783829060005260206000209060020201604051806040016040529081600082018054610bfa90611735565b80601f0160208091040260200160405190810160405280929190818152602001828054610c2690611735565b8015610c735780601f10610c4857610100808354040283529160200191610c73565b820191906000526020600020905b815481529060010190602001808311610c5657829003601f168201915b5050505050815260200160018201548152505081526020019060010190610bc7565b5050505081526020016002820160009054906101000a900473ffffffffffffffffffffffffffffffffffffffff1673ffffffffffffffffffffffffffffffffffffffff1673ffffffffffffffffffffffffffffffffffffffff1681526020016002820160149054906101000a900460ff166002811115610d1857610d17611115565b5b6002811115610d2a57610d29611115565b5b81525050858580610d3a90611795565b965081518110610d4d57610d4c6117dd565b5b60200260200101819052505b508080610d6590611795565b915050610af8565b508080610d7990611795565b915050610aeb565b508192505050919050565b6000806000905060005b600254811015610e5c5760005b6001600083815260200190815260200160002060010180549050811015610e485760008580519060200120600160008581526020019081526020016000206001018381548110610df657610df56117dd565b5b9060005260206000209060020201600001604051610e149190611cad565b60405180910390201490508015610e34578380610e3090611795565b9450505b508080610e4090611795565b915050610da3565b508080610e5490611795565b915050610d96565b5080915050919050565b60405180608001604052806000815260200160608152602001600073ffffffffffffffffffffffffffffffffffffffff16815260200160006002811115610eb057610eaf611115565b5b81525090565b6000604051905090565b600080fd5b600080fd5b6000819050919050565b610edd81610eca565b8114610ee857600080fd5b50565b600081359050610efa81610ed4565b92915050565b600060208284031215610f1657610f15610ec0565b5b6000610f2484828501610eeb565b91505092915050565b610f3681610eca565b82525050565b600081519050919050565b600082825260208201905092915050565b6000819050602082019050919050565b600081519050919050565b600082825260208201905092915050565b60005b83811015610fa2578082015181840152602081019050610f87565b83811115610fb1576000848401525b50505050565b6000601f19601f8301169050919050565b6000610fd382610f68565b610fdd8185610f73565b9350610fed818560208601610f84565b610ff681610fb7565b840191505092915050565b6000604083016000830151848203600086015261101e8282610fc8565b91505060208301516110336020860182610f2d565b508091505092915050565b600061104a8383611001565b905092915050565b6000602082019050919050565b600061106a82610f3c565b6110748185610f47565b93508360208202850161108685610f58565b8060005b858110156110c257848403895281516110a3858261103e565b94506110ae83611052565b925060208a0199505060018101905061108a565b50829750879550505050505092915050565b600073ffffffffffffffffffffffffffffffffffffffff82169050919050565b60006110ff826110d4565b9050919050565b61110f816110f4565b82525050565b7f4e487b7100000000000000000000000000000000000000000000000000000000600052602160045260246000fd5b6003811061115557611154611115565b5b50565b600081905061116682611144565b919050565b600061117682611158565b9050919050565b6111868161116b565b82525050565b60006080830160008301516111a46000860182610f2d565b50602083015184820360208601526111bc828261105f565b91505060408301516111d16040860182611106565b5060608301516111e4606086018261117d565b508091505092915050565b60006020820190508181036000830152611209818461118c565b905092915050565b61121a816110f4565b82525050565b60006020820190506112356000830184611211565b92915050565b61124481610eca565b82525050565b600060208201905061125f600083018461123b565b92915050565b600080fd5b600080fd5b600080fd5b60008083601f84011261128a57611289611265565b5b8235905067ffffffffffffffff8111156112a7576112a661126a565b5b6020830191508360208202830111156112c3576112c261126f565b5b9250929050565b600080602083850312156112e1576112e0610ec0565b5b600083013567ffffffffffffffff8111156112ff576112fe610ec5565b5b61130b85828601611274565b92509250509250929050565b600080fd5b7f4e487b7100000000000000000000000000000000000000000000000000000000600052604160045260246000fd5b61135482610fb7565b810181811067ffffffffffffffff821117156113735761137261131c565b5b80604052505050565b6000611386610eb6565b9050611392828261134b565b919050565b600067ffffffffffffffff8211156113b2576113b161131c565b5b6113bb82610fb7565b9050602081019050919050565b82818337600083830152505050565b60006113ea6113e584611397565b61137c565b90508281526020810184848401111561140657611405611317565b5b6114118482856113c8565b509392505050565b600082601f83011261142e5761142d611265565b5b813561143e8482602086016113d7565b91505092915050565b60006020828403121561145d5761145c610ec0565b5b600082013567ffffffffffffffff81111561147b5761147a610ec5565b5b61148784828501611419565b91505092915050565b600081519050919050565b600082825260208201905092915050565b6000819050602082019050919050565b60006080830160008301516114d46000860182610f2d565b50602083015184820360208601526114ec828261105f565b91505060408301516115016040860182611106565b506060830151611514606086018261117d565b508091505092915050565b600061152b83836114bc565b905092915050565b6000602082019050919050565b600061154b82611490565b611555818561149b565b935083602082028501611567856114ac565b8060005b858110156115a35784840389528151611584858261151f565b945061158f83611533565b925060208a0199505060018101905061156b565b50829750879550505050505092915050565b600060208201905081810360008301526115cf8184611540565b905092915050565b600081905092915050565b50565b60006115f26000836115d7565b91506115fd826115e2565b600082019050919050565b6000611613826115e5565b9150819050919050565b600082825260208201905092915050565b7f5769746864726177206661696c65640000000000000000000000000000000000600082015250565b6000611664600f8361161d565b915061166f8261162e565b602082019050919050565b6000602082019050818103600083015261169381611657565b9050919050565b7f496e646578206f7574206f6620626f756e647300000000000000000000000000600082015250565b60006116d060138361161d565b91506116db8261169a565b602082019050919050565b600060208201905081810360008301526116ff816116c3565b9050919050565b7f4e487b7100000000000000000000000000000000000000000000000000000000600052602260045260246000fd5b6000600282049050600182168061174d57607f821691505b6020821081036117605761175f611706565b5b50919050565b7f4e487b7100000000000000000000000000000000000000000000000000000000600052601160045260246000fd5b60006117a082610eca565b91507fffffffffffffffffffffffffffffffffffffffffffffffffffffffffffffffff82036117d2576117d1611766565b5b600182019050919050565b7f4e487b7100000000000000000000000000000000000000000000000000000000600052603260045260246000fd5b600080fd5b600080fd5b600080fd5b6000823560016040038336030381126118375761183661180c565b5b80830191505092915050565b600080833560016020038436030381126118605761185f61180c565b5b80840192508235915067ffffffffffffffff82111561188257611881611811565b5b60208301925060018202360383131561189e5761189d611816565b5b509250929050565b600082905092915050565b60008190508160005260206000209050919050565b60006020601f8301049050919050565b600082821b905092915050565b6000600883026119137fffffffffffffffffffffffffffffffffffffffffffffffffffffffffffffffff826118d6565b61191d86836118d6565b95508019841693508086168417925050509392505050565b6000819050919050565b600061195a61195561195084610eca565b611935565b610eca565b9050919050565b6000819050919050565b6119748361193f565b61198861198082611961565b8484546118e3565b825550505050565b600090565b61199d611990565b6119a881848461196b565b505050565b5b818110156119cc576119c1600082611995565b6001810190506119ae565b5050565b601f821115611a11576119e2816118b1565b6119eb846118c6565b810160208510156119fa578190505b611a0e611a06856118c6565b8301826119ad565b50505b505050565b600082821c905092915050565b6000611a3460001984600802611a16565b1980831691505092915050565b6000611a4d8383611a23565b9150826002028217905092915050565b611a6783836118a6565b67ffffffffffffffff811115611a8057611a7f61131c565b5b611a8a8254611735565b611a958282856119d0565b6000601f831160018114611ac45760008415611ab2578287013590505b611abc8582611a41565b865550611b24565b601f198416611ad2866118b1565b60005b82811015611afa57848901358255600182019150602085019450602081019050611ad5565b86831015611b175784890135611b13601f891682611a23565b8355505b6001600288020188555050505b50505050505050565b611b38838383611a5d565b505050565b60008135611b4a81610ed4565b80915050919050565b60008160001b9050919050565b60007fffffffffffffffffffffffffffffffffffffffffffffffffffffffffffffffff611b8c84611b53565b9350801983169250808416831791505092915050565b611bab8261193f565b611bbe611bb782611961565b8354611b60565b8255505050565b6000810160008301611bd78185611843565b611be2818386611b2d565b50505050600181016020830180611bf881611b3d565b9050611c048184611ba2565b5050505050565b611c158282611bc5565b5050565b60008190508160005260206000209050919050565b60008154611c3b81611735565b611c4581866115d7565b94506001821660008114611c605760018114611c7157611ca4565b60ff19831686528186019350611ca4565b611c7a85611c19565b60005b83811015611c9c57815481890152600182019150602081019050611c7d565b838801955050505b50505092915050565b6000611cb98284611c2e565b91508190509291505056fea2646970667358221220bf369f4e92696e6f0f017d062af21492bf4bf96f8983ab0461e60e202de7085d64736f6c634300080d0033",
  "immutableReferences": {},
  "source": "// SPDX-License-Identifier: MIT\npragma solidity >=0.4.22 <0.9.0;\n\ncontract OrderMarketplace {\n    enum OrderState {\n        Created,\n        Confirmed,\n        Cancelled\n    }\n\n    struct OrderItem {\n        string id;\n        uint256 amount;\n    }\n    struct Order {\n        uint256 id;\n        OrderItem[] items;\n        address customer;\n        OrderState state;\n    }\n    address payable private owner;\n\n    mapping(uint256 => Order) private orders;\n\n    uint256 private orderCount;\n\n    /// Only owner has an access\n    error OnlyOwner();\n\n    /// Order has invalid state\n    error OrderInvalidState();\n\n    constructor() {\n        setContractOwner(msg.sender);\n    }\n\n    modifier onlyOwner() {\n        if (msg.sender != getContractOwner()) {\n            revert OnlyOwner();\n        }\n        _;\n    }\n\n    receive() external payable {}\n\n    function createOrder(OrderItem[] calldata items) external payable {\n        uint256 id = orderCount++;\n        orders[id].id = id;\n        orders[id].customer = msg.sender;\n        for (uint256 i = 0; i < items.length; i++) {\n            orders[id].items.push(items[i]);\n        }\n        orders[id].state = OrderState.Created;\n    }\n\n    function confirmOrder(uint256 index) external onlyOwner {\n        require(index < orderCount, \"Index out of bounds\");\n\n        if (orders[index].state != OrderState.Created) {\n            revert OrderInvalidState();\n        }\n        Order storage order = orders[index];\n        order.state = OrderState.Confirmed;\n    }\n\n    function cancelOrder(uint256 index) external onlyOwner {\n        require(index < orderCount, \"Index out of bounds\");\n\n        if (orders[index].state != OrderState.Created) {\n            revert OrderInvalidState();\n        }\n\n        Order storage order = orders[index];\n        order.state = OrderState.Cancelled;\n    }\n\n    function withdraw(uint256 amount) external onlyOwner {\n        (bool success, ) = owner.call{value: amount}(\"\");\n        require(success, \"Withdraw failed\");\n    }\n\n    function selfDestruct() external onlyOwner {\n        selfdestruct(owner);\n    }\n\n    function traceOrdersByProductId(string memory id)\n        external\n        view\n        returns (Order[] memory)\n    {\n        Order[] memory result = new Order[](getTracedByIdMatchCount(id));\n        uint256 matchCount = 0;\n        for (uint256 i = 0; i < orderCount; i++) {\n            for (uint256 j = 0; j < orders[i].items.length; j++) {\n                bool isEquals = keccak256(bytes(orders[i].items[j].id)) ==\n                    keccak256(bytes(id));\n                if (isEquals) {\n                    result[matchCount++] = orders[i];\n                }\n            }\n        }\n        return result;\n    }\n\n    function getOrderById(uint256 id) external view returns (Order memory) {\n        require(id < orderCount, \"Index out of bounds\");\n\n        return orders[id];\n    }\n\n    function getOrderCount() external view returns (uint256) {\n        return orderCount;\n    }\n\n    function getContractOwner() public view returns (address) {\n        return owner;\n    }\n\n    function getTracedByIdMatchCount(string memory id)\n        internal\n        view\n        returns (uint256)\n    {\n        uint256 count = 0;\n        for (uint256 i = 0; i < orderCount; i++) {\n            for (uint256 j = 0; j < orders[i].items.length; j++) {\n                bool isEquals = keccak256(bytes(orders[i].items[j].id)) ==\n                    keccak256(bytes(id));\n                if (isEquals) {\n                    count++;\n                }\n            }\n        }\n        return count;\n    }\n\n    function setContractOwner(address newOwner) private {\n        owner = payable(newOwner);\n    }\n}\n",
  "sourcePath": "/home/ubuntu/shibanovp/nrail-challenge/backend/contracts/OrderMarketplace.sol",
  "compiler": {
    "name": "solc",
    "version": "0.8.13+commit.abaa5c0e.Emscripten.clang"
  },
  "schemaVersion": "3.4.7",
  "updatedAt": "2022-05-25T19:54:32.337Z",
  "networkType": "ethereum",
  "devdoc": {
    "kind": "dev",
    "methods": {},
    "version": 1
  },
  "userdoc": {
    "errors": {
      "OnlyOwner()": [
        {
          "notice": "Only owner has an access"
        }
      ],
      "OrderInvalidState()": [
        {
          "notice": "Order has invalid state"
        }
      ]
    },
    "kind": "user",
    "methods": {},
    "version": 1
  }
}