{
  "contractName": "OrderMarketplace",
  "abi": [
    {
      "inputs": [],
      "stateMutability": "nonpayable",
      "type": "constructor"
    },
    {
      "inputs": [],
      "name": "OnlyOwner",
      "type": "error"
    },
    {
      "inputs": [],
      "name": "OrderInvalidState",
      "type": "error"
    },
    {
      "stateMutability": "payable",
      "type": "receive",
      "payable": true
    },
    {
      "inputs": [
        {
          "components": [
            {
              "internalType": "string",
              "name": "id",
              "type": "string"
            },
            {
              "internalType": "uint256",
              "name": "amount",
              "type": "uint256"
            }
          ],
          "internalType": "struct OrderMarketplace.OrderItem[]",
          "name": "items",
          "type": "tuple[]"
        }
      ],
      "name": "createOrder",
      "outputs": [],
      "stateMutability": "payable",
      "type": "function",
      "payable": true
    },
    {
      "inputs": [
        {
          "internalType": "uint256",
          "name": "index",
          "type": "uint256"
        }
      ],
      "name": "confirmOrder",
      "outputs": [],
      "stateMutability": "nonpayable",
      "type": "function"
    },
    {
      "inputs": [
        {
          "internalType": "uint256",
          "name": "index",
          "type": "uint256"
        }
      ],
      "name": "cancelOrder",
      "outputs": [],
      "stateMutability": "nonpayable",
      "type": "function"
    },
    {
      "inputs": [
        {
          "internalType": "uint256",
          "name": "amount",
          "type": "uint256"
        }
      ],
      "name": "withdraw",
      "outputs": [],
      "stateMutability": "nonpayable",
      "type": "function"
    },
    {
      "inputs": [],
      "name": "selfDestruct",
      "outputs": [],
      "stateMutability": "nonpayable",
      "type": "function"
    },
    {
      "inputs": [
        {
          "internalType": "string",
          "name": "id",
          "type": "string"
        }
      ],
      "name": "traceOrdersByProductId",
      "outputs": [
        {
          "components": [
            {
              "internalType": "uint256",
              "name": "id",
              "type": "uint256"
            },
            {
              "components": [
                {
                  "internalType": "string",
                  "name": "id",
                  "type": "string"
                },
                {
                  "internalType": "uint256",
                  "name": "amount",
                  "type": "uint256"
                }
              ],
              "internalType": "struct OrderMarketplace.OrderItem[]",
              "name": "items",
              "type": "tuple[]"
            },
            {
              "internalType": "address",
              "name": "customer",
              "type": "address"
            },
            {
              "internalType": "enum OrderMarketplace.OrderState",
              "name": "state",
              "type": "uint8"
            }
          ],
          "internalType": "struct OrderMarketplace.Order[]",
          "name": "",
          "type": "tuple[]"
        }
      ],
      "stateMutability": "view",
      "type": "function",
      "constant": true
    },
    {
      "inputs": [
        {
          "internalType": "uint256",
          "name": "id",
          "type": "uint256"
        }
      ],
      "name": "getOrderById",
      "outputs": [
        {
          "components": [
            {
              "internalType": "uint256",
              "name": "id",
              "type": "uint256"
            },
            {
              "components": [
                {
                  "internalType": "string",
                  "name": "id",
                  "type": "string"
                },
                {
                  "internalType": "uint256",
                  "name": "amount",
                  "type": "uint256"
                }
              ],
              "internalType": "struct OrderMarketplace.OrderItem[]",
              "name": "items",
              "type": "tuple[]"
            },
            {
              "internalType": "address",
              "name": "customer",
              "type": "address"
            },
            {
              "internalType": "enum OrderMarketplace.OrderState",
              "name": "state",
              "type": "uint8"
            }
          ],
          "internalType": "struct OrderMarketplace.Order",
          "name": "",
          "type": "tuple"
        }
      ],
      "stateMutability": "view",
      "type": "function",
      "constant": true
    },
    {
      "inputs": [],
      "name": "getOrderCount",
      "outputs": [
        {
          "internalType": "uint256",
          "name": "",
          "type": "uint256"
        }
      ],
      "stateMutability": "view",
      "type": "function",
      "constant": true
    },
    {
      "inputs": [],
      "name": "getContractOwner",
      "outputs": [
        {
          "internalType": "address",
          "name": "",
          "type": "address"
        }
      ],
      "stateMutability": "view",
      "type": "function",
      "constant": true
    }
  ],
  "bytecode": "0x608060405234801561001057600080fd5b506100203361002560201b60201c565b610068565b806000806101000a81548173ffffffffffffffffffffffffffffffffffffffff021916908373ffffffffffffffffffffffffffffffffffffffff16021790555050565b611ced806100776000396000f3fe60806040526004361061008a5760003560e01c80638ac7d79c116100595780638ac7d79c146101505780638d0a5fbb146101795780639cb8a26a146101a4578063bfc594ca146101bb578063efc91c8d146101d757610091565b80632e1a7d4d1461009657806342b50a7a146100bf578063442890d5146100fc578063514fcac71461012757610091565b3661009157005b600080fd5b3480156100a257600080fd5b506100bd60048036038101906100b89190610ef3565b610214565b005b3480156100cb57600080fd5b506100e660048036038101906100e19190610ef3565b610351565b6040516100f391906111e2565b60405180910390f35b34801561010857600080fd5b50610111610558565b60405161011e9190611213565b60405180910390f35b34801561013357600080fd5b5061014e60048036038101906101499190610ef3565b610581565b005b34801561015c57600080fd5b5061017760048036038101906101729190610ef3565b6106f4565b005b34801561018557600080fd5b5061018e610866565b60405161019b919061123d565b60405180910390f35b3480156101b057600080fd5b506101b9610870565b005b6101d560048036038101906101d091906112bd565b610915565b005b3480156101e357600080fd5b506101fe60048036038101906101f9919061143a565b610a78565b60405161020b91906115a8565b60405180910390f35b61021c610558565b73ffffffffffffffffffffffffffffffffffffffff163373ffffffffffffffffffffffffffffffffffffffff1614610280576040517f5fc483c500000000000000000000000000000000000000000000000000000000815260040160405180910390fd5b60008060009054906101000a900473ffffffffffffffffffffffffffffffffffffffff1673ffffffffffffffffffffffffffffffffffffffff16826040516102c7906115fb565b60006040518083038185875af1925050503d8060008114610304576040519150601f19603f3d011682016040523d82523d6000602084013e610309565b606091505b505090508061034d576040517f08c379a00000000000000000000000000000000000000000000000000000000081526004016103449061166d565b60405180910390fd5b5050565b610359610e59565b600254821061039d576040517f08c379a0000000000000000000000000000000000000000000000000000000008152600401610394906116d9565b60405180910390fd5b600160008381526020019081526020016000206040518060800160405290816000820154815260200160018201805480602002602001604051908101604052809291908181526020016000905b828210156104b8578382906000526020600020906002020160405180604001604052908160008201805461041d90611728565b80601f016020809104026020016040519081016040528092919081815260200182805461044990611728565b80156104965780601f1061046b57610100808354040283529160200191610496565b820191906000526020600020905b81548152906001019060200180831161047957829003601f168201915b50505050508152602001600182015481525050815260200190600101906103ea565b5050505081526020016002820160009054906101000a900473ffffffffffffffffffffffffffffffffffffffff1673ffffffffffffffffffffffffffffffffffffffff1673ffffffffffffffffffffffffffffffffffffffff1681526020016002820160149054906101000a900460ff16600281111561053b5761053a611108565b5b600281111561054d5761054c611108565b5b815250509050919050565b60008060009054906101000a900473ffffffffffffffffffffffffffffffffffffffff16905090565b610589610558565b73ffffffffffffffffffffffffffffffffffffffff163373ffffffffffffffffffffffffffffffffffffffff16146105ed576040517f5fc483c500000000000000000000000000000000000000000000000000000000815260040160405180910390fd5b6002548110610631576040517f08c379a0000000000000000000000000000000000000000000000000000000008152600401610628906116d9565b60405180910390fd5b6000600281111561064557610644611108565b5b6001600083815260200190815260200160002060020160149054906101000a900460ff16600281111561067b5761067a611108565b5b146106b2576040517f7f2bab6100000000000000000000000000000000000000000000000000000000815260040160405180910390fd5b60026001600083815260200190815260200160002060020160146101000a81548160ff021916908360028111156106ec576106eb611108565b5b021790555050565b6106fc610558565b73ffffffffffffffffffffffffffffffffffffffff163373ffffffffffffffffffffffffffffffffffffffff1614610760576040517f5fc483c500000000000000000000000000000000000000000000000000000000815260040160405180910390fd5b60025481106107a4576040517f08c379a000000000000000000000000000000000000000000000000000000000815260040161079b906116d9565b60405180910390fd5b600060028111156107b8576107b7611108565b5b6001600083815260200190815260200160002060020160149054906101000a900460ff1660028111156107ee576107ed611108565b5b14610825576040517f7f2bab6100000000000000000000000000000000000000000000000000000000815260040160405180910390fd5b600180600083815260200190815260200160002060020160146101000a81548160ff0219169083600281111561085e5761085d611108565b5b021790555050565b6000600254905090565b610878610558565b73ffffffffffffffffffffffffffffffffffffffff163373ffffffffffffffffffffffffffffffffffffffff16146108dc576040517f5fc483c500000000000000000000000000000000000000000000000000000000815260040160405180910390fd5b60008054906101000a900473ffffffffffffffffffffffffffffffffffffffff1673ffffffffffffffffffffffffffffffffffffffff16ff5b60006002600081548092919061092a90611788565b919050559050806001600083815260200190815260200160002060000181905550336001600083815260200190815260200160002060020160006101000a81548173ffffffffffffffffffffffffffffffffffffffff021916908373ffffffffffffffffffffffffffffffffffffffff16021790555060005b83839050811015610a3357600160008381526020019081526020016000206001018484838181106109d7576109d66117d0565b5b90506020028101906109e9919061180e565b90806001815401808255809150506001900390600052602060002090600202016000909190919091508181610a1e9190611bfe565b50508080610a2b90611788565b9150506109a3565b5060006001600083815260200190815260200160002060020160146101000a81548160ff02191690836002811115610a6e57610a6d611108565b5b0217905550505050565b60606000610a8583610d7f565b67ffffffffffffffff811115610a9e57610a9d61130f565b5b604051908082528060200260200182016040528015610ad757816020015b610ac4610e59565b815260200190600190039081610abc5790505b5090506000805b600254811015610d745760005b6001600083815260200190815260200160002060010180549050811015610d605760008680519060200120600160008581526020019081526020016000206001018381548110610b3e57610b3d6117d0565b5b9060005260206000209060020201600001604051610b5c9190611ca0565b60405180910390201490508015610d4c57600160008481526020019081526020016000206040518060800160405290816000820154815260200160018201805480602002602001604051908101604052809291908181526020016000905b82821015610c885783829060005260206000209060020201604051806040016040529081600082018054610bed90611728565b80601f0160208091040260200160405190810160405280929190818152602001828054610c1990611728565b8015610c665780601f10610c3b57610100808354040283529160200191610c66565b820191906000526020600020905b815481529060010190602001808311610c4957829003601f168201915b5050505050815260200160018201548152505081526020019060010190610bba565b5050505081526020016002820160009054906101000a900473ffffffffffffffffffffffffffffffffffffffff1673ffffffffffffffffffffffffffffffffffffffff1673ffffffffffffffffffffffffffffffffffffffff1681526020016002820160149054906101000a900460ff166002811115610d0b57610d0a611108565b5b6002811115610d1d57610d1c611108565b5b81525050858580610d2d90611788565b965081518110610d4057610d3f6117d0565b5b60200260200101819052505b508080610d5890611788565b915050610aeb565b508080610d6c90611788565b915050610ade565b508192505050919050565b6000806000905060005b600254811015610e4f5760005b6001600083815260200190815260200160002060010180549050811015610e3b5760008580519060200120600160008581526020019081526020016000206001018381548110610de957610de86117d0565b5b9060005260206000209060020201600001604051610e079190611ca0565b60405180910390201490508015610e27578380610e2390611788565b9450505b508080610e3390611788565b915050610d96565b508080610e4790611788565b915050610d89565b5080915050919050565b60405180608001604052806000815260200160608152602001600073ffffffffffffffffffffffffffffffffffffffff16815260200160006002811115610ea357610ea2611108565b5b81525090565b6000604051905090565b600080fd5b600080fd5b6000819050919050565b610ed081610ebd565b8114610edb57600080fd5b50565b600081359050610eed81610ec7565b92915050565b600060208284031215610f0957610f08610eb3565b5b6000610f1784828501610ede565b91505092915050565b610f2981610ebd565b82525050565b600081519050919050565b600082825260208201905092915050565b6000819050602082019050919050565b600081519050919050565b600082825260208201905092915050565b60005b83811015610f95578082015181840152602081019050610f7a565b83811115610fa4576000848401525b50505050565b6000601f19601f8301169050919050565b6000610fc682610f5b565b610fd08185610f66565b9350610fe0818560208601610f77565b610fe981610faa565b840191505092915050565b600060408301600083015184820360008601526110118282610fbb565b91505060208301516110266020860182610f20565b508091505092915050565b600061103d8383610ff4565b905092915050565b6000602082019050919050565b600061105d82610f2f565b6110678185610f3a565b93508360208202850161107985610f4b565b8060005b858110156110b557848403895281516110968582611031565b94506110a183611045565b925060208a0199505060018101905061107d565b50829750879550505050505092915050565b600073ffffffffffffffffffffffffffffffffffffffff82169050919050565b60006110f2826110c7565b9050919050565b611102816110e7565b82525050565b7f4e487b7100000000000000000000000000000000000000000000000000000000600052602160045260246000fd5b6003811061114857611147611108565b5b50565b600081905061115982611137565b919050565b60006111698261114b565b9050919050565b6111798161115e565b82525050565b60006080830160008301516111976000860182610f20565b50602083015184820360208601526111af8282611052565b91505060408301516111c460408601826110f9565b5060608301516111d76060860182611170565b508091505092915050565b600060208201905081810360008301526111fc818461117f565b905092915050565b61120d816110e7565b82525050565b60006020820190506112286000830184611204565b92915050565b61123781610ebd565b82525050565b6000602082019050611252600083018461122e565b92915050565b600080fd5b600080fd5b600080fd5b60008083601f84011261127d5761127c611258565b5b8235905067ffffffffffffffff81111561129a5761129961125d565b5b6020830191508360208202830111156112b6576112b5611262565b5b9250929050565b600080602083850312156112d4576112d3610eb3565b5b600083013567ffffffffffffffff8111156112f2576112f1610eb8565b5b6112fe85828601611267565b92509250509250929050565b600080fd5b7f4e487b7100000000000000000000000000000000000000000000000000000000600052604160045260246000fd5b61134782610faa565b810181811067ffffffffffffffff821117156113665761136561130f565b5b80604052505050565b6000611379610ea9565b9050611385828261133e565b919050565b600067ffffffffffffffff8211156113a5576113a461130f565b5b6113ae82610faa565b9050602081019050919050565b82818337600083830152505050565b60006113dd6113d88461138a565b61136f565b9050828152602081018484840111156113f9576113f861130a565b5b6114048482856113bb565b509392505050565b600082601f83011261142157611420611258565b5b81356114318482602086016113ca565b91505092915050565b6000602082840312156114505761144f610eb3565b5b600082013567ffffffffffffffff81111561146e5761146d610eb8565b5b61147a8482850161140c565b91505092915050565b600081519050919050565b600082825260208201905092915050565b6000819050602082019050919050565b60006080830160008301516114c76000860182610f20565b50602083015184820360208601526114df8282611052565b91505060408301516114f460408601826110f9565b5060608301516115076060860182611170565b508091505092915050565b600061151e83836114af565b905092915050565b6000602082019050919050565b600061153e82611483565b611548818561148e565b93508360208202850161155a8561149f565b8060005b8581101561159657848403895281516115778582611512565b945061158283611526565b925060208a0199505060018101905061155e565b50829750879550505050505092915050565b600060208201905081810360008301526115c28184611533565b905092915050565b600081905092915050565b50565b60006115e56000836115ca565b91506115f0826115d5565b600082019050919050565b6000611606826115d8565b9150819050919050565b600082825260208201905092915050565b7f5769746864726177206661696c65640000000000000000000000000000000000600082015250565b6000611657600f83611610565b915061166282611621565b602082019050919050565b600060208201905081810360008301526116868161164a565b9050919050565b7f496e646578206f7574206f6620626f756e647300000000000000000000000000600082015250565b60006116c3601383611610565b91506116ce8261168d565b602082019050919050565b600060208201905081810360008301526116f2816116b6565b9050919050565b7f4e487b7100000000000000000000000000000000000000000000000000000000600052602260045260246000fd5b6000600282049050600182168061174057607f821691505b602082108103611753576117526116f9565b5b50919050565b7f4e487b7100000000000000000000000000000000000000000000000000000000600052601160045260246000fd5b600061179382610ebd565b91507fffffffffffffffffffffffffffffffffffffffffffffffffffffffffffffffff82036117c5576117c4611759565b5b600182019050919050565b7f4e487b7100000000000000000000000000000000000000000000000000000000600052603260045260246000fd5b600080fd5b600080fd5b600080fd5b60008235600160400383360303811261182a576118296117ff565b5b80830191505092915050565b60008083356001602003843603038112611853576118526117ff565b5b80840192508235915067ffffffffffffffff82111561187557611874611804565b5b60208301925060018202360383131561189157611890611809565b5b509250929050565b600082905092915050565b60008190508160005260206000209050919050565b60006020601f8301049050919050565b600082821b905092915050565b6000600883026119067fffffffffffffffffffffffffffffffffffffffffffffffffffffffffffffffff826118c9565b61191086836118c9565b95508019841693508086168417925050509392505050565b6000819050919050565b600061194d61194861194384610ebd565b611928565b610ebd565b9050919050565b6000819050919050565b61196783611932565b61197b61197382611954565b8484546118d6565b825550505050565b600090565b611990611983565b61199b81848461195e565b505050565b5b818110156119bf576119b4600082611988565b6001810190506119a1565b5050565b601f821115611a04576119d5816118a4565b6119de846118b9565b810160208510156119ed578190505b611a016119f9856118b9565b8301826119a0565b50505b505050565b600082821c905092915050565b6000611a2760001984600802611a09565b1980831691505092915050565b6000611a408383611a16565b9150826002028217905092915050565b611a5a8383611899565b67ffffffffffffffff811115611a7357611a7261130f565b5b611a7d8254611728565b611a888282856119c3565b6000601f831160018114611ab75760008415611aa5578287013590505b611aaf8582611a34565b865550611b17565b601f198416611ac5866118a4565b60005b82811015611aed57848901358255600182019150602085019450602081019050611ac8565b86831015611b0a5784890135611b06601f891682611a16565b8355505b6001600288020188555050505b50505050505050565b611b2b838383611a50565b505050565b60008135611b3d81610ec7565b80915050919050565b60008160001b9050919050565b60007fffffffffffffffffffffffffffffffffffffffffffffffffffffffffffffffff611b7f84611b46565b9350801983169250808416831791505092915050565b611b9e82611932565b611bb1611baa82611954565b8354611b53565b8255505050565b6000810160008301611bca8185611836565b611bd5818386611b20565b50505050600181016020830180611beb81611b30565b9050611bf78184611b95565b5050505050565b611c088282611bb8565b5050565b60008190508160005260206000209050919050565b60008154611c2e81611728565b611c3881866115ca565b94506001821660008114611c535760018114611c6457611c97565b60ff19831686528186019350611c97565b611c6d85611c0c565b60005b83811015611c8f57815481890152600182019150602081019050611c70565b838801955050505b50505092915050565b6000611cac8284611c21565b91508190509291505056fea264697066735822122012dd2d7ae490e9b9c199de3af9ea4fd9dc5fa4bd86ed72cddfcaab7bad98607264736f6c634300080d0033",
  "immutableReferences": {},
  "source": "// SPDX-License-Identifier: MIT\npragma solidity >=0.4.22 <0.9.0;\n\ncontract OrderMarketplace {\n    enum OrderState {\n        Created,\n        Confirmed,\n        Cancelled\n    }\n\n    struct OrderItem {\n        string id;\n        uint256 amount;\n    }\n    struct Order {\n        uint256 id;\n        OrderItem[] items;\n        address customer;\n        OrderState state;\n    }\n    address payable private owner;\n\n    mapping(uint256 => Order) private orders;\n\n    uint256 private orderCount;\n\n    /// Only owner has an access\n    error OnlyOwner();\n\n    /// Order has invalid state\n    error OrderInvalidState();\n\n    constructor() {\n        setContractOwner(msg.sender);\n    }\n\n    modifier onlyOwner() {\n        if (msg.sender != getContractOwner()) {\n            revert OnlyOwner();\n        }\n        _;\n    }\n\n    receive() external payable {}\n\n    function createOrder(OrderItem[] calldata items) external payable {\n        uint256 id = orderCount++;\n        orders[id].id = id;\n        orders[id].customer = msg.sender;\n        for (uint256 i = 0; i < items.length; i++) {\n            orders[id].items.push(items[i]);\n        }\n        orders[id].state = OrderState.Created;\n    }\n\n    function confirmOrder(uint256 index) external onlyOwner {\n        require(index < orderCount, \"Index out of bounds\");\n\n        if (orders[index].state != OrderState.Created) {\n            revert OrderInvalidState();\n        }\n        orders[index].state = OrderState.Confirmed;\n    }\n\n    function cancelOrder(uint256 index) external onlyOwner {\n        require(index < orderCount, \"Index out of bounds\");\n\n        if (orders[index].state != OrderState.Created) {\n            revert OrderInvalidState();\n        }\n        orders[index].state = OrderState.Cancelled;\n    }\n\n    function withdraw(uint256 amount) external onlyOwner {\n        (bool success, ) = owner.call{value: amount}(\"\");\n        require(success, \"Withdraw failed\");\n    }\n\n    function selfDestruct() external onlyOwner {\n        selfdestruct(owner);\n    }\n\n    function traceOrdersByProductId(string memory id)\n        external\n        view\n        returns (Order[] memory)\n    {\n        Order[] memory result = new Order[](getTracedByIdMatchCount(id));\n        uint256 matchCount = 0;\n        for (uint256 i = 0; i < orderCount; i++) {\n            for (uint256 j = 0; j < orders[i].items.length; j++) {\n                bool isEquals = keccak256(bytes(orders[i].items[j].id)) ==\n                    keccak256(bytes(id));\n                if (isEquals) {\n                    result[matchCount++] = orders[i];\n                }\n            }\n        }\n        return result;\n    }\n\n    function getOrderById(uint256 id) external view returns (Order memory) {\n        require(id < orderCount, \"Index out of bounds\");\n\n        return orders[id];\n    }\n\n    function getOrderCount() external view returns (uint256) {\n        return orderCount;\n    }\n\n    function getContractOwner() public view returns (address) {\n        return owner;\n    }\n\n    function getTracedByIdMatchCount(string memory id)\n        internal\n        view\n        returns (uint256)\n    {\n        uint256 count = 0;\n        for (uint256 i = 0; i < orderCount; i++) {\n            for (uint256 j = 0; j < orders[i].items.length; j++) {\n                bool isEquals = keccak256(bytes(orders[i].items[j].id)) ==\n                    keccak256(bytes(id));\n                if (isEquals) {\n                    count++;\n                }\n            }\n        }\n        return count;\n    }\n\n    function setContractOwner(address newOwner) private {\n        owner = payable(newOwner);\n    }\n}\n",
  "sourcePath": "/home/ubuntu/shibanovp/nrail-challenge/backend/contracts/OrderMarketplace.sol",
  "compiler": {
    "name": "solc",
    "version": "0.8.13+commit.abaa5c0e.Emscripten.clang"
  },
  "schemaVersion": "3.4.7",
  "updatedAt": "2022-05-23T09:56:32.137Z",
  "networkType": "ethereum",
  "devdoc": {
    "kind": "dev",
    "methods": {},
    "version": 1
  },
  "userdoc": {
    "errors": {
      "OnlyOwner()": [
        {
          "notice": "Only owner has an access"
        }
      ],
      "OrderInvalidState()": [
        {
          "notice": "Order has invalid state"
        }
      ]
    },
    "kind": "user",
    "methods": {},
    "version": 1
  }
}